:020000040000FA
:0600000054EF06F01200AF
:020006000000F8
:08000800800EE66E32DAE552CB
:10001000706AE00E716E020E726E200E736E779E25
:10002000779C606A0F01506BC80E006F320E016F33
:10003000046B056BC80E086F320E096F0C6B0D6BED
:10004000106B116B146B156B18693F0E196F1997B4
:100050001C6B1D6B1D97E66A0CDAE5521200D9CFB6
:10006000E6FFE1CFD9FF190EE126D950060FE96E60
:10007000DACFEAFF400EEE6E0F0EED6ED950080F8C
:10008000E96EDACFEAFF300EEE6E0F0EED6ED9504C
:100090000A0FE96EDACFEAFF200EEE6E0F0EED6E5C
:1000A000DF6A020EDF5C01E3D1D0D950060F0B6E80
:1000B000DACF0CF0DF50020D0B50F324E96E0C5038
:1000C000F420EA6E020EEECFDBFF030EEDCFDBFF76
:1000D000020EDBCF06F0030EDBCF07F0040E06C0E6
:1000E000DBFF050E07C0DBFF020EDBCFE9FF030ECF
:1000F000DBCFEAFFEF50080B01E0A6D0FC0E0B6E41
:10010000020EDBCFE9FF030EDBCFEAFF0B50EF1649
:10011000F70EDB50030B0B6E020EDBCFE9FF030E75
:10012000DBCFEAFF0B50EF12F70EDBAC08D0F80E76
:10013000DB504009E76E180EE7CFDBFF06D0F80E64
:10014000DB50E76E180EE7CFDBFF050EE76E020E01
:10015000DBCFE9FF030EDBCFEAFFE750E926000E15
:10016000EA22180EDBCFEFFFF70EDBAA06D0010E56
:10017000F36E180EF3CFDBFF02D0180EDB6ADBCF75
:10018000E6FFD950FB0FE96EFF0EDA20EA6EEECFE4
:10019000E6FFEECFE6FFEECFE6FFEFCFE6FF010E84
:1001A000E76E020EDBCF0BF0030EDBCF0CF0E75057
:1001B0000B26000E0C220BC0E6FF0CC0E6FF6ED92A
:1001C0000D6E070EE15E0D50D950020FE96EDACFC9
:1001D000EAFF060EEE26000EED22010EDB6AF80E97
:1001E000DB50F36E010EDBCFF4FFF350F45C1AE248
:1001F000F90EDBCFE9FFDB2AFA0EDBCFEAFF01E3E2
:10020000DB2AEF50E66E020EDBCFE9FFDB2A030E9E
:10021000DBCFEAFF01E3DB2AE552E750EF6E010E88
:10022000DB2ADDD7040EDBCFE9FF050EDBCFEAFFCB
:10023000EF50040B07E1040EDBCFE9FF050EDBCF27
:10024000EAFFEF86010E04D0DF2A2BD7000E00D084
:100250000B6E190EE15C02E2E16AE552E16E0B50B1
:10026000E552E7CFD9FF1200D9CFE6FFE1CFD9FFA2
:10027000060EE12600016A6B60AE15D0A49074AE44
:1002800008D0F70EDBCFE9FFF80EDBCFEAFFEF86F1
:10029000749E6A916050010B01E06A81600EDE6E0F
:1002A0000F0EDD6E23D00F0150AF1ED0A49274ACA0
:1002B00008D0F70EDBCFE9FFF80EDBCFEAFFEF86C1
:1002C000749C070E501500016A6F020E6A5D07E20A
:1002D000F70EDBCFE9FFF80EDBCFEAFFEF8E500E13
:1002E000DE6E0F0EDD6E02D0000EB7D0D9CFE9FF63
:1002F000DACFEAFF020EEECFDBFF030EEDCFDBFF1E
:10030000F70EDBCFE9FFF80EDBCFEAFFEF6ADECFB7
:10031000E9FFDDCFEAFF050EE926000EEA22050E11
:10032000EFCFDBFFDB500F0BE66EF90EDBCFE9FF03
:10033000FA0EDBCFEAFFE552E750EF6ED950050F1A
:10034000E96EDACFEAFFEF50400B08E000D0F70E7D
:10035000DBCFE9FFF80EDBCFEAFFEF8CDECFE9FF62
:10036000DDCFEAFF020EE926000EEA22050EEFCFEE
:10037000DBFFD950050FE96EDACFEAFFEF50080B2B
:100380000DE0F70EDBCFE9FFF80EDBCFEAFFEF8AD7
:10039000010EF36E050EF3CFDBFF02D0050EDB6A14
:1003A000DBCFE6FFFD0EDBCFE6FFFE0EDBCFE6FF89
:1003B000DECF0BF0DDCF0CF0010E0B26000E0C2271
:1003C0000BC0E6FF0CC0E6FF49D90D6E050EE15EDD
:1003D0000D50060EDE26000EDD22F90EDBCFE9FF02
:1003E000FA0EDBCFEAFF050EEFCFDBFF040EDB6A70
:1003F000050EDB50F36E040EDBCFF4FFF350F45C1C
:1004000019E2DFCFE9FFDF2A010EDBCFEAFF01E3CC
:10041000DB2AEF50E66EFB0EDBCFE9FFDB2AFC0E9A
:10042000DBCFEAFF01E3DB2AE552E750EF6E040E73
:10043000DB2ADED7A4AE08D0F70EDBCFE9FFF80E3B
:10044000DBCFEAFFEF88A49E020EDBCFE9FF030EAD
:10045000DBCFEAFFEF9E010E00D00B6E060EE15CD3
:1004600002E2E16AE552E16E0B50E552E7CFD9FFB7
:100470001200D9CFE6FFE1CFD9FF1F0E6F16FE0E97
:10048000DB506F12E00E6F140B6EFE0EDB500B5C38
:1004900001E0F8D7E552E7CFD9FF1200D9CFE6FF48
:1004A000E1CFD9FF020EE126D950F90F0B6EFF0EF6
:1004B000DA200C6E0BC0DEFF0CC0DDFFF80EDB5047
:1004C0003BE1DECFE9FFDDCFEAFFEF50E840E84057
:1004D000E8401F0BE66EFD0EDBCFE9FFFE0EDBCF23
:1004E000EAFFE552E750EF6EDECFE9FFDDCFEAFF2E
:1004F000EE52EF50200DF3CF0BF0FD0EDBCFE9FFF6
:10050000FE0EDBCFEAFF0B50EF12FD0EDB2AFE0ED4
:1005100001E3DB2ADECFE9FFDDCFEAFFEF50200D5C
:10052000F350E66EFD0EDBCFE9FFFE0EDBCFEAFFF8
:10053000E552E750EF6E88D0DECFE9FFDDCFEAFF6E
:10054000020EE926000EEA22EF50E00BE838E84000
:10055000E66EFD0EDBCFE9FFFE0EDBCFEAFFE552D4
:10056000E750EF6EDECFE9FFDDCFEAFF030EE926AD
:10057000000EEA22EF50080DF3CF0BF0FD0EDBCF9B
:10058000E9FFFE0EDBCFEAFF0B50EF12FD0EDB2A78
:10059000FE0E01E3DB2ADECFE9FFDDCFEAFF020E2C
:1005A000E926000EEA22EF50080DF350E00BE66E4C
:1005B000FD0EDBCFE9FFFE0EDBCFEAFFE552E75091
:1005C000EF6EFD0EDBCFE9FFFE0EDBCFEAFFEF861D
:1005D000DECFE9FFDDCFEAFF020EE926000EEA22B8
:1005E000EF50030B0B6EFD0EDBCFE9FFFE0EDBCFF2
:1005F000EAFF0B50EF12FD0EDB2AFE0E01E3DB2AB1
:10060000DECFE9FFDDCFEAFFEE52EF50E66EFD0EE2
:10061000DBCFE9FFFE0EDBCFEAFFE552E750EF6EDE
:10062000FD0EDB2AFE0E01E3DB2ADECFE9FFDDCF84
:10063000EAFFEF50E66EFD0EDBCFE9FFFE0EDBCFEB
:10064000EAFFE552E750EF6E020EE15C02E2E16A7A
:10065000E552E16EE552E7CFD9FF1200D9CFE6FFB0
:10066000E1CFD9FF020EE126FB0EDBCFDEFFDBCFB1
:10067000DDFFFA0EDB504DE1FD0EDBCFE9FFFE0E94
:10068000DBCFEAFFEF50080DF350E66EDECFE9FF57
:10069000DDCFEAFFE552E750EF6EFD0EDBCFE9FF5D
:1006A000FE0EDBCFEAFFEF50E00BE838E840E66EE5
:1006B000DECFE9FFDDCFEAFFEE52E552E750EF6E05
:1006C000FD0EDB2AFE0E01E3DB2AFD0EDBCFE9FF88
:1006D000FE0EDBCFEAFFEF50E00BE838E8400B6E90
:1006E000DECFE9FFDDCFEAFF0B50EF12DECFE9FFEF
:1006F000DDCFEAFF020EE926000EEA22EF6ADECF26
:10070000E9FFDDCFEAFF030EE926000EEA22EF6AD9
:1007100084D0FD0EDBCFE9FFFE0EDBCFEAFFEF500A
:10072000200DF350E66EDECFE9FFDDCFEAFF020ECB
:10073000E926000EEA22E552E750EF6EFD0EDBCF10
:10074000E9FFFE0EDBCFEAFFEF50E840E840E8406B
:100750001F0BE66EDECFE9FFDDCFEAFF030EE926D1
:10076000000EEA22E552E750EF6EFD0EDB2AFE0E88
:1007700001E3DB2AFD0EDBCFE9FFFE0EDBCFEAFF54
:10078000EF50030B0B6EDECFE9FFDDCFEAFF020E69
:10079000E926000EEA220B50EF12FD0EDBCFE9FF37
:1007A000FE0EDBCFEAFFEF50E00BE840E840E84008
:1007B0001F0B0B6EDECFE9FFDDCFEAFF020EE9264D
:1007C000000EEA220B50EF12FD0EDB2AFE0E01E3B3
:1007D000DB2AFD0EDBCFE9FFFE0EDBCFEAFFEF5099
:1007E000E66EDECFE9FFDDCFEAFFEE52E552E750DD
:1007F000EF6EFD0EDB2AFE0E01E3DB2AFD0EDBCFE2
:10080000E9FFFE0EDBCFEAFFEF50E66EDECFE9FF39
:10081000DDCFEAFFE552E750EF6E020EE15C02E247
:0E082000E16AE552E16EE552E7CFD9FF120022
:02082E00D9CF20
:10083000E6FFE1CFD9FF1F0EE126400EF36E110E49
:10084000F3CFDBFF060EF36E120EF3CFDBFF130EBA
:10085000DB6A140EDB6A020EF36E1D0EF3CFDBFFB4
:100860001E0EDB6ADB6A9290929294948990899230
:100870008B84949A949C949E8B8A8B9C8B9EE66826
:100880001CEC06F0E5527E0EE66E01EC06F0E55239
:10089000000EE66EE66AD2EC05F0E552E55204EC95
:1008A00000F0400EE66E060EE66EF6D8E552E55212
:1008B000D9500D0FE66E000EDA20E66ED9500C0FFF
:1008C000E66E000EDA20E66ED950040FE66E000EDA
:1008D000DA20E66ED9CFE6FFDACFE6FF34EC01F09E
:1008E0000B6E080EE15E0B50000901E1E1D7040E2A
:1008F000DB50F00BE76E0E0EE7CFDBFF050EDB5093
:100900000D6E0E6AD8900D360E36D8900D360E3616
:10091000040EDB50030B00010D100B6E0EC00CF02B
:100920000F0E0BC0DBFF100E0CC0DBFF0E0EDB50FA
:10093000F00A4BE0300A26E0600A01E059D08980D5
:1009400089920A0EE66EE66A70D8E552E552D950F1
:100950000F0FE96EDACFEAFFFF0EEE1802E1030E89
:10096000ED1802E196D80BD091D80F0EDBCFE6FF41
:10097000100EDBCFE6FFD2EC05F0E552E5528B8C92
:100980008B9E48D0899089820A0EE66EE66A4DD821
:10099000E552E552D9500F0FE96EDACFEAFFFF0EAC
:1009A000EE1802E1030EED1802E173D80BD06ED8F9
:1009B0000F0EDBCFE6FF100EDBCFE6FFD2EC05F02B
:1009C000E552E5528B9C8B8E25D060D8000EE66EEA
:1009D000E66AD2EC05F0E552E5528B9C8B9E050E43
:1009E000E66EE66A22D8E552E5528990899212D0E5
:1009F0004DD8000EE66EE66AD2EC05F0E552E552FF
:100A00008B9C8B9E050EE66EE66A0FD8E552E5528A
:100A1000899089924DD71F0EE15C02E2E16AE552AE
:100A2000E16EE552E7CFD9FF1200D9CFE6FFE1CF63
:100A3000D9FF020EE126DE6ADD6ADECF0BF0DDCFE4
:100A40000CF0FD0EDBCF0DF0FE0EDBCF0EF00C50E8
:100A50000E18E8AE02D00E3404D00D500B5C0E50D0
:100A60000C580AE2050EE66E34EC06F0E552DF2A79
:100A7000010E01E3DB2AE1D7020EE15C02E2E16A4A
:100A8000E552E16EE552E7CFD9FF12000C0EBD1220
:100A90001200F30EBD161200D9CFE6FFE1CFD9FF49
:100AA000FD0EDBCF0BF0FE0EDBCF0CF0030ED8906B
:100AB0000C320B32E804FBE10BC004FF0BC008FF53
:100AC0000BC00CFF0BC010FF0BC014FFFD0EDBCFE3
:100AD0000BF0FE0EDBCF0CF0050ED8900B360C366B
:100AE000E804FBE1E00E0B140F01056F096F0D6FB9
:100AF000116F156F1869E00E196F1C691D6FE552B3
:060B0000E7CFD9FF12004F
:0A0B0600060EF66E000EF76E000EEC
:100B1000F86E00010900F550656F0900F550666F29
:100B200003E1656701D03DD00900F550606F090011
:100B3000F550616F0900F550626F09000900F5502A
:100B4000E96E0900F550EA6E090009000900F55048
:100B5000636F0900F550646F09000900F6CF67F074
:100B6000F7CF68F0F8CF69F060C0F6FF61C0F7FF1B
:100B700062C0F8FF0001635302E1645307E009001B
:100B8000F550EE6E6307F8E26407F9D767C0F6FF29
:100B900068C0F7FF69C0F8FF00016507000E665BDB
:040BA000BFD71200A9
:0C0BA400D9CFE6FFDACFE6FFE1CFD9FFA2
:100BB000E2CFDAFFE652E652FC0EDBCF0BF0FD0E81
:100BC000DBCF0CF0060ED8900B360C36E804FBE1B8
:100BD0000BC0DEFF0CC0DDFF010EDB50BE6EDF5030
:100BE000E840E8403F0B300B0B6ECF0EBD140B10EE
:100BF000BD6EE552E552E552E5CFDAFFE7CFD9FF0A
:020C00001200E0
:0E0C0200D9CFE6FFDACFE6FFE1CFD9FFE2CF90
:100C1000DAFFFD0EDB50FB0BCA6ECC6A9E92FD0E16
:100C2000DBAE02D09D8201D09D92CA84E552E5CF11
:080C3000DAFFE7CFD9FF120043
:080C3800D9CFE6FFDACFE6FF99
:100C4000E1CFD9FFE2CFDAFF0C0EBD129494CA9423
:100C5000FD0EDB50CB6ECA84E552E5CFDAFFE7CF5D
:080C6000D9FF12009494120068
:080C6800FF0EE3500F6E480E71
:100C700001D04C0EE76EE72EFED7E76AE72EFED7CF
:080C80000F2EF7D7000012004F
:080C8800000EF36E00EE00F017
:100C9000060E01D81200EA6002D0EE6AFCD7F350CB
:080CA000E9601200EE6AFCD7C6
:080CA80015EE00F025EE00F04E
:100CB000F86A0A9C83EC05F062EC06F017EC04F08D
:040CC000FBD712004C
:020CC40012001C
:020000040030CA
:0100010002FC
:0100020008F5
:010003001EDE
:01000500807A
:010006008079
:00000001FF
